{
	"smartWallet.sol": {
		"smartWallet": {
			"abi": [
				{
					"inputs": [
						{
							"internalType": "address",
							"name": "_owner",
							"type": "address"
						}
					],
					"stateMutability": "nonpayable",
					"type": "constructor"
				},
				{
					"inputs": [
						{
							"internalType": "address",
							"name": "to",
							"type": "address"
						},
						{
							"internalType": "uint256",
							"name": "value",
							"type": "uint256"
						},
						{
							"internalType": "bytes",
							"name": "data",
							"type": "bytes"
						}
					],
					"name": "execute",
					"outputs": [],
					"stateMutability": "nonpayable",
					"type": "function"
				},
				{
					"inputs": [],
					"name": "nonce",
					"outputs": [
						{
							"internalType": "uint256",
							"name": "",
							"type": "uint256"
						}
					],
					"stateMutability": "view",
					"type": "function"
				},
				{
					"inputs": [
						{
							"internalType": "bytes32",
							"name": "hash",
							"type": "bytes32"
						},
						{
							"internalType": "bytes",
							"name": "sig",
							"type": "bytes"
						}
					],
					"name": "recoverSigner",
					"outputs": [
						{
							"internalType": "address",
							"name": "",
							"type": "address"
						}
					],
					"stateMutability": "pure",
					"type": "function"
				},
				{
					"stateMutability": "payable",
					"type": "receive"
				}
			],
			"devdoc": {
				"kind": "dev",
				"methods": {
					"execute(address,uint256,bytes)": {
						"details": "Executes a transaction from this wallet",
						"params": {
							"data": "The function call data (used for calling other contract functions)",
							"to": "The address where we want to send funds or interact with",
							"value": "The amount of Ether to send"
						}
					},
					"recoverSigner(bytes32,bytes)": {
						"details": "Recovers the address that signed a message",
						"params": {
							"hash": "The message hash that was signed",
							"sig": "The signature (should be 65 bytes long: r + s + v)"
						},
						"returns": {
							"_0": "The address of the signer"
						}
					}
				},
				"version": 1
			},
			"evm": {
				"assembly": "    /* \"smartWallet.sol\":140:2571  contract smartWallet {... */\n  mstore(0x40, 0x80)\n    /* \"smartWallet.sol\":412:512  constructor(address _owner) {... */\n  callvalue\n  dup1\n  iszero\n  tag_1\n  jumpi\n  revert(0x00, 0x00)\ntag_1:\n  pop\n  mload(0x40)\n  sub(codesize, bytecodeSize)\n  dup1\n  bytecodeSize\n  dup4\n  codecopy\n  dup2\n  dup2\n  add\n  0x40\n  mstore\n  dup2\n  add\n  swap1\n  tag_2\n  swap2\n  swap1\n  tag_3\n  jump\t// in\ntag_2:\n    /* \"smartWallet.sol\":498:504  _owner */\n  dup1\n    /* \"smartWallet.sol\":491:495  user */\n  0x00\n  0x00\n    /* \"smartWallet.sol\":491:504  user = _owner */\n  0x0100\n  exp\n  dup2\n  sload\n  dup2\n  0xffffffffffffffffffffffffffffffffffffffff\n  mul\n  not\n  and\n  swap1\n  dup4\n  0xffffffffffffffffffffffffffffffffffffffff\n  and\n  mul\n  or\n  swap1\n  sstore\n  pop\n    /* \"smartWallet.sol\":412:512  constructor(address _owner) {... */\n  pop\n    /* \"smartWallet.sol\":140:2571  contract smartWallet {... */\n  jump(tag_6)\n    /* \"#utility.yul\":88:205   */\ntag_8:\n    /* \"#utility.yul\":197:198   */\n  0x00\n    /* \"#utility.yul\":194:195   */\n  0x00\n    /* \"#utility.yul\":187:199   */\n  revert\n    /* \"#utility.yul\":334:460   */\ntag_10:\n    /* \"#utility.yul\":371:378   */\n  0x00\n    /* \"#utility.yul\":411:453   */\n  0xffffffffffffffffffffffffffffffffffffffff\n    /* \"#utility.yul\":404:409   */\n  dup3\n    /* \"#utility.yul\":400:454   */\n  and\n    /* \"#utility.yul\":389:454   */\n  swap1\n  pop\n    /* \"#utility.yul\":334:460   */\n  swap2\n  swap1\n  pop\n  jump\t// out\n    /* \"#utility.yul\":466:562   */\ntag_11:\n    /* \"#utility.yul\":503:510   */\n  0x00\n    /* \"#utility.yul\":532:556   */\n  tag_20\n    /* \"#utility.yul\":550:555   */\n  dup3\n    /* \"#utility.yul\":532:556   */\n  tag_10\n  jump\t// in\ntag_20:\n    /* \"#utility.yul\":521:556   */\n  swap1\n  pop\n    /* \"#utility.yul\":466:562   */\n  swap2\n  swap1\n  pop\n  jump\t// out\n    /* \"#utility.yul\":568:690   */\ntag_12:\n    /* \"#utility.yul\":641:665   */\n  tag_22\n    /* \"#utility.yul\":659:664   */\n  dup2\n    /* \"#utility.yul\":641:665   */\n  tag_11\n  jump\t// in\ntag_22:\n    /* \"#utility.yul\":634:639   */\n  dup2\n    /* \"#utility.yul\":631:666   */\n  eq\n    /* \"#utility.yul\":621:684   */\n  tag_23\n  jumpi\n    /* \"#utility.yul\":680:681   */\n  0x00\n    /* \"#utility.yul\":677:678   */\n  0x00\n    /* \"#utility.yul\":670:682   */\n  revert\n    /* \"#utility.yul\":621:684   */\ntag_23:\n    /* \"#utility.yul\":568:690   */\n  pop\n  jump\t// out\n    /* \"#utility.yul\":696:839   */\ntag_13:\n    /* \"#utility.yul\":753:758   */\n  0x00\n    /* \"#utility.yul\":784:790   */\n  dup2\n    /* \"#utility.yul\":778:791   */\n  mload\n    /* \"#utility.yul\":769:791   */\n  swap1\n  pop\n    /* \"#utility.yul\":800:833   */\n  tag_25\n    /* \"#utility.yul\":827:832   */\n  dup2\n    /* \"#utility.yul\":800:833   */\n  tag_12\n  jump\t// in\ntag_25:\n    /* \"#utility.yul\":696:839   */\n  swap3\n  swap2\n  pop\n  pop\n  jump\t// out\n    /* \"#utility.yul\":845:1196   */\ntag_3:\n    /* \"#utility.yul\":915:921   */\n  0x00\n    /* \"#utility.yul\":964:966   */\n  0x20\n    /* \"#utility.yul\":952:961   */\n  dup3\n    /* \"#utility.yul\":943:950   */\n  dup5\n    /* \"#utility.yul\":939:962   */\n  sub\n    /* \"#utility.yul\":935:967   */\n  slt\n    /* \"#utility.yul\":932:1051   */\n  iszero\n  tag_27\n  jumpi\n    /* \"#utility.yul\":970:1049   */\n  tag_28\n  tag_8\n  jump\t// in\ntag_28:\n    /* \"#utility.yul\":932:1051   */\ntag_27:\n    /* \"#utility.yul\":1090:1091   */\n  0x00\n    /* \"#utility.yul\":1115:1179   */\n  tag_29\n    /* \"#utility.yul\":1171:1178   */\n  dup5\n    /* \"#utility.yul\":1162:1168   */\n  dup3\n    /* \"#utility.yul\":1151:1160   */\n  dup6\n    /* \"#utility.yul\":1147:1169   */\n  add\n    /* \"#utility.yul\":1115:1179   */\n  tag_13\n  jump\t// in\ntag_29:\n    /* \"#utility.yul\":1105:1179   */\n  swap2\n  pop\n    /* \"#utility.yul\":1061:1189   */\n  pop\n    /* \"#utility.yul\":845:1196   */\n  swap3\n  swap2\n  pop\n  pop\n  jump\t// out\n    /* \"smartWallet.sol\":140:2571  contract smartWallet {... */\ntag_6:\n  dataSize(sub_0)\n  dup1\n  dataOffset(sub_0)\n  0x00\n  codecopy\n  0x00\n  return\nstop\n\nsub_0: assembly {\n        /* \"smartWallet.sol\":140:2571  contract smartWallet {... */\n      mstore(0x40, 0x80)\n      jumpi(tag_1, lt(calldatasize, 0x04))\n      shr(0xe0, calldataload(0x00))\n      dup1\n      0x97aba7f9\n      eq\n      tag_3\n      jumpi\n      dup1\n      0xaffed0e0\n      eq\n      tag_4\n      jumpi\n      dup1\n      0xb61d27f6\n      eq\n      tag_5\n      jumpi\n      jump(tag_2)\n    tag_1:\n      jumpi(tag_2, calldatasize)\n      stop\n    tag_2:\n      revert(0x00, 0x00)\n        /* \"smartWallet.sol\":1701:2459  function recoverSigner(bytes32 hash, bytes memory sig) public pure returns (address) {... */\n    tag_3:\n      callvalue\n      dup1\n      iszero\n      tag_8\n      jumpi\n      revert(0x00, 0x00)\n    tag_8:\n      pop\n      tag_9\n      0x04\n      dup1\n      calldatasize\n      sub\n      dup2\n      add\n      swap1\n      tag_10\n      swap2\n      swap1\n      tag_11\n      jump\t// in\n    tag_10:\n      tag_12\n      jump\t// in\n    tag_9:\n      mload(0x40)\n      tag_13\n      swap2\n      swap1\n      tag_14\n      jump\t// in\n    tag_13:\n      mload(0x40)\n      dup1\n      swap2\n      sub\n      swap1\n      return\n        /* \"smartWallet.sol\":323:343  uint256 public nonce */\n    tag_4:\n      callvalue\n      dup1\n      iszero\n      tag_15\n      jumpi\n      revert(0x00, 0x00)\n    tag_15:\n      pop\n      tag_16\n      tag_17\n      jump\t// in\n    tag_16:\n      mload(0x40)\n      tag_18\n      swap2\n      swap1\n      tag_19\n      jump\t// in\n    tag_18:\n      mload(0x40)\n      dup1\n      swap2\n      sub\n      swap1\n      return\n        /* \"smartWallet.sol\":1052:1454  function execute(address to, uint value, bytes calldata data) external onlyOwner {... */\n    tag_5:\n      callvalue\n      dup1\n      iszero\n      tag_20\n      jumpi\n      revert(0x00, 0x00)\n    tag_20:\n      pop\n      tag_21\n      0x04\n      dup1\n      calldatasize\n      sub\n      dup2\n      add\n      swap1\n      tag_22\n      swap2\n      swap1\n      tag_23\n      jump\t// in\n    tag_22:\n      tag_24\n      jump\t// in\n    tag_21:\n      stop\n        /* \"smartWallet.sol\":1701:2459  function recoverSigner(bytes32 hash, bytes memory sig) public pure returns (address) {... */\n    tag_12:\n        /* \"smartWallet.sol\":1777:1784  address */\n      0x00\n        /* \"smartWallet.sol\":1866:1868  65 */\n      0x41\n        /* \"smartWallet.sol\":1852:1855  sig */\n      dup3\n        /* \"smartWallet.sol\":1852:1862  sig.length */\n      mload\n        /* \"smartWallet.sol\":1852:1868  sig.length == 65 */\n      eq\n        /* \"smartWallet.sol\":1844:1897  require(sig.length == 65, \"Invalid signature length\") */\n      tag_26\n      jumpi\n      mload(0x40)\n      0x08c379a000000000000000000000000000000000000000000000000000000000\n      dup2\n      mstore\n      0x04\n      add\n      tag_27\n      swap1\n      tag_28\n      jump\t// in\n    tag_27:\n      mload(0x40)\n      dup1\n      swap2\n      sub\n      swap1\n      revert\n    tag_26:\n        /* \"smartWallet.sol\":1970:1979  bytes32 r */\n      0x00\n        /* \"smartWallet.sol\":1990:1999  bytes32 s */\n      0x00\n        /* \"smartWallet.sol\":2010:2017  uint8 v */\n      0x00\n        /* \"smartWallet.sol\":2147:2149  32 */\n      0x20\n        /* \"smartWallet.sol\":2142:2145  sig */\n      dup6\n        /* \"smartWallet.sol\":2138:2150  add(sig, 32) */\n      add\n        /* \"smartWallet.sol\":2132:2151  mload(add(sig, 32)) */\n      mload\n        /* \"smartWallet.sol\":2127:2151  r := mload(add(sig, 32)) */\n      swap3\n      pop\n        /* \"smartWallet.sol\":2230:2232  64 */\n      0x40\n        /* \"smartWallet.sol\":2225:2228  sig */\n      dup6\n        /* \"smartWallet.sol\":2221:2233  add(sig, 64) */\n      add\n        /* \"smartWallet.sol\":2215:2234  mload(add(sig, 64)) */\n      mload\n        /* \"smartWallet.sol\":2210:2234  s := mload(add(sig, 64)) */\n      swap2\n      pop\n        /* \"smartWallet.sol\":2296:2298  96 */\n      0x60\n        /* \"smartWallet.sol\":2291:2294  sig */\n      dup6\n        /* \"smartWallet.sol\":2287:2299  add(sig, 96) */\n      add\n        /* \"smartWallet.sol\":2281:2300  mload(add(sig, 96)) */\n      mload\n        /* \"smartWallet.sol\":2278:2279  0 */\n      0x00\n        /* \"smartWallet.sol\":2273:2301  byte(0, mload(add(sig, 96))) */\n      byte\n        /* \"smartWallet.sol\":2268:2301  v := byte(0, mload(add(sig, 96))) */\n      swap1\n      pop\n        /* \"smartWallet.sol\":2427:2451  ecrecover(hash, v, r, s) */\n      0x01\n        /* \"smartWallet.sol\":2437:2441  hash */\n      dup7\n        /* \"smartWallet.sol\":2443:2444  v */\n      dup3\n        /* \"smartWallet.sol\":2446:2447  r */\n      dup6\n        /* \"smartWallet.sol\":2449:2450  s */\n      dup6\n        /* \"smartWallet.sol\":2427:2451  ecrecover(hash, v, r, s) */\n      mload(0x40)\n      0x00\n      dup2\n      mstore\n      0x20\n      add\n      0x40\n      mstore\n      mload(0x40)\n      tag_29\n      swap5\n      swap4\n      swap3\n      swap2\n      swap1\n      tag_30\n      jump\t// in\n    tag_29:\n      0x20\n      mload(0x40)\n      0x20\n      dup2\n      sub\n      swap1\n      dup1\n      dup5\n      sub\n      swap1\n      dup6\n      gas\n      staticcall\n      iszero\n      dup1\n      iszero\n      tag_32\n      jumpi\n      returndatacopy(0x00, 0x00, returndatasize)\n      revert(0x00, returndatasize)\n    tag_32:\n      pop\n      pop\n      pop\n      mload(sub(mload(0x40), 0x20))\n        /* \"smartWallet.sol\":2420:2451  return ecrecover(hash, v, r, s) */\n      swap4\n      pop\n      pop\n      pop\n      pop\n        /* \"smartWallet.sol\":1701:2459  function recoverSigner(bytes32 hash, bytes memory sig) public pure returns (address) {... */\n      swap3\n      swap2\n      pop\n      pop\n      jump\t// out\n        /* \"smartWallet.sol\":323:343  uint256 public nonce */\n    tag_17:\n      sload(0x01)\n      dup2\n      jump\t// out\n        /* \"smartWallet.sol\":1052:1454  function execute(address to, uint value, bytes calldata data) external onlyOwner {... */\n    tag_24:\n        /* \"smartWallet.sol\":698:702  user */\n      0x00\n      0x00\n      swap1\n      sload\n      swap1\n      0x0100\n      exp\n      swap1\n      div\n      0xffffffffffffffffffffffffffffffffffffffff\n      and\n        /* \"smartWallet.sol\":684:702  msg.sender == user */\n      0xffffffffffffffffffffffffffffffffffffffff\n      and\n        /* \"smartWallet.sol\":684:694  msg.sender */\n      caller\n        /* \"smartWallet.sol\":684:702  msg.sender == user */\n      0xffffffffffffffffffffffffffffffffffffffff\n      and\n      eq\n        /* \"smartWallet.sol\":676:742  require(msg.sender == user, \"You're not the owner of the account\") */\n      tag_34\n      jumpi\n      mload(0x40)\n      0x08c379a000000000000000000000000000000000000000000000000000000000\n      dup2\n      mstore\n      0x04\n      add\n      tag_35\n      swap1\n      tag_36\n      jump\t// in\n    tag_35:\n      mload(0x40)\n      dup1\n      swap2\n      sub\n      swap1\n      revert\n    tag_34:\n        /* \"smartWallet.sol\":1207:1212  nonce */\n      0x01\n      0x00\n        /* \"smartWallet.sol\":1207:1214  nonce++ */\n      dup2\n      sload\n      dup1\n      swap3\n      swap2\n      swap1\n      tag_38\n      swap1\n      tag_39\n      jump\t// in\n    tag_38:\n      swap2\n      swap1\n      pop\n      sstore\n      pop\n        /* \"smartWallet.sol\":1299:1311  bool success */\n      0x00\n        /* \"smartWallet.sol\":1316:1318  to */\n      dup5\n        /* \"smartWallet.sol\":1316:1323  to.call */\n      0xffffffffffffffffffffffffffffffffffffffff\n      and\n        /* \"smartWallet.sol\":1331:1336  value */\n      dup5\n        /* \"smartWallet.sol\":1338:1342  data */\n      dup5\n      dup5\n        /* \"smartWallet.sol\":1316:1343  to.call{value: value}(data) */\n      mload(0x40)\n      tag_40\n      swap3\n      swap2\n      swap1\n      tag_41\n      jump\t// in\n    tag_40:\n      0x00\n      mload(0x40)\n      dup1\n      dup4\n      sub\n      dup2\n      dup6\n      dup8\n      gas\n      call\n      swap3\n      pop\n      pop\n      pop\n      returndatasize\n      dup1\n      0x00\n      dup2\n      eq\n      tag_44\n      jumpi\n      mload(0x40)\n      swap2\n      pop\n      and(add(returndatasize, 0x3f), not(0x1f))\n      dup3\n      add\n      0x40\n      mstore\n      returndatasize\n      dup3\n      mstore\n      returndatasize\n      0x00\n      0x20\n      dup5\n      add\n      returndatacopy\n      jump(tag_43)\n    tag_44:\n      0x60\n      swap2\n      pop\n    tag_43:\n      pop\n        /* \"smartWallet.sol\":1298:1343  (bool success,) = to.call{value: value}(data) */\n      pop\n      swap1\n      pop\n        /* \"smartWallet.sol\":1419:1426  success */\n      dup1\n        /* \"smartWallet.sol\":1411:1446  require(success, \"Execution fails\") */\n      tag_45\n      jumpi\n      mload(0x40)\n      0x08c379a000000000000000000000000000000000000000000000000000000000\n      dup2\n      mstore\n      0x04\n      add\n      tag_46\n      swap1\n      tag_47\n      jump\t// in\n    tag_46:\n      mload(0x40)\n      dup1\n      swap2\n      sub\n      swap1\n      revert\n    tag_45:\n        /* \"smartWallet.sol\":1133:1454  {... */\n      pop\n        /* \"smartWallet.sol\":1052:1454  function execute(address to, uint value, bytes calldata data) external onlyOwner {... */\n      pop\n      pop\n      pop\n      pop\n      jump\t// out\n        /* \"#utility.yul\":7:82   */\n    tag_48:\n        /* \"#utility.yul\":40:46   */\n      0x00\n        /* \"#utility.yul\":73:75   */\n      0x40\n        /* \"#utility.yul\":67:76   */\n      mload\n        /* \"#utility.yul\":57:76   */\n      swap1\n      pop\n        /* \"#utility.yul\":7:82   */\n      swap1\n      jump\t// out\n        /* \"#utility.yul\":88:205   */\n    tag_49:\n        /* \"#utility.yul\":197:198   */\n      0x00\n        /* \"#utility.yul\":194:195   */\n      0x00\n        /* \"#utility.yul\":187:199   */\n      revert\n        /* \"#utility.yul\":211:328   */\n    tag_50:\n        /* \"#utility.yul\":320:321   */\n      0x00\n        /* \"#utility.yul\":317:318   */\n      0x00\n        /* \"#utility.yul\":310:322   */\n      revert\n        /* \"#utility.yul\":334:411   */\n    tag_51:\n        /* \"#utility.yul\":371:378   */\n      0x00\n        /* \"#utility.yul\":400:405   */\n      dup2\n        /* \"#utility.yul\":389:405   */\n      swap1\n      pop\n        /* \"#utility.yul\":334:411   */\n      swap2\n      swap1\n      pop\n      jump\t// out\n        /* \"#utility.yul\":417:539   */\n    tag_52:\n        /* \"#utility.yul\":490:514   */\n      tag_95\n        /* \"#utility.yul\":508:513   */\n      dup2\n        /* \"#utility.yul\":490:514   */\n      tag_51\n      jump\t// in\n    tag_95:\n        /* \"#utility.yul\":483:488   */\n      dup2\n        /* \"#utility.yul\":480:515   */\n      eq\n        /* \"#utility.yul\":470:533   */\n      tag_96\n      jumpi\n        /* \"#utility.yul\":529:530   */\n      0x00\n        /* \"#utility.yul\":526:527   */\n      0x00\n        /* \"#utility.yul\":519:531   */\n      revert\n        /* \"#utility.yul\":470:533   */\n    tag_96:\n        /* \"#utility.yul\":417:539   */\n      pop\n      jump\t// out\n        /* \"#utility.yul\":545:684   */\n    tag_53:\n        /* \"#utility.yul\":591:596   */\n      0x00\n        /* \"#utility.yul\":629:635   */\n      dup2\n        /* \"#utility.yul\":616:636   */\n      calldataload\n        /* \"#utility.yul\":607:636   */\n      swap1\n      pop\n        /* \"#utility.yul\":645:678   */\n      tag_98\n        /* \"#utility.yul\":672:677   */\n      dup2\n        /* \"#utility.yul\":645:678   */\n      tag_52\n      jump\t// in\n    tag_98:\n        /* \"#utility.yul\":545:684   */\n      swap3\n      swap2\n      pop\n      pop\n      jump\t// out\n        /* \"#utility.yul\":690:807   */\n    tag_54:\n        /* \"#utility.yul\":799:800   */\n      0x00\n        /* \"#utility.yul\":796:797   */\n      0x00\n        /* \"#utility.yul\":789:801   */\n      revert\n        /* \"#utility.yul\":813:930   */\n    tag_55:\n        /* \"#utility.yul\":922:923   */\n      0x00\n        /* \"#utility.yul\":919:920   */\n      0x00\n        /* \"#utility.yul\":912:924   */\n      revert\n        /* \"#utility.yul\":936:1038   */\n    tag_56:\n        /* \"#utility.yul\":977:983   */\n      0x00\n        /* \"#utility.yul\":1028:1030   */\n      0x1f\n        /* \"#utility.yul\":1024:1031   */\n      not\n        /* \"#utility.yul\":1019:1021   */\n      0x1f\n        /* \"#utility.yul\":1012:1017   */\n      dup4\n        /* \"#utility.yul\":1008:1022   */\n      add\n        /* \"#utility.yul\":1004:1032   */\n      and\n        /* \"#utility.yul\":994:1032   */\n      swap1\n      pop\n        /* \"#utility.yul\":936:1038   */\n      swap2\n      swap1\n      pop\n      jump\t// out\n        /* \"#utility.yul\":1044:1224   */\n    tag_57:\n        /* \"#utility.yul\":1092:1169   */\n      0x4e487b7100000000000000000000000000000000000000000000000000000000\n        /* \"#utility.yul\":1089:1090   */\n      0x00\n        /* \"#utility.yul\":1082:1170   */\n      mstore\n        /* \"#utility.yul\":1189:1193   */\n      0x41\n        /* \"#utility.yul\":1186:1187   */\n      0x04\n        /* \"#utility.yul\":1179:1194   */\n      mstore\n        /* \"#utility.yul\":1213:1217   */\n      0x24\n        /* \"#utility.yul\":1210:1211   */\n      0x00\n        /* \"#utility.yul\":1203:1218   */\n      revert\n        /* \"#utility.yul\":1230:1511   */\n    tag_58:\n        /* \"#utility.yul\":1313:1340   */\n      tag_104\n        /* \"#utility.yul\":1335:1339   */\n      dup3\n        /* \"#utility.yul\":1313:1340   */\n      tag_56\n      jump\t// in\n    tag_104:\n        /* \"#utility.yul\":1305:1311   */\n      dup2\n        /* \"#utility.yul\":1301:1341   */\n      add\n        /* \"#utility.yul\":1443:1449   */\n      dup2\n        /* \"#utility.yul\":1431:1441   */\n      dup2\n        /* \"#utility.yul\":1428:1450   */\n      lt\n        /* \"#utility.yul\":1407:1425   */\n      0xffffffffffffffff\n        /* \"#utility.yul\":1395:1405   */\n      dup3\n        /* \"#utility.yul\":1392:1426   */\n      gt\n        /* \"#utility.yul\":1389:1451   */\n      or\n        /* \"#utility.yul\":1386:1474   */\n      iszero\n      tag_105\n      jumpi\n        /* \"#utility.yul\":1454:1472   */\n      tag_106\n      tag_57\n      jump\t// in\n    tag_106:\n        /* \"#utility.yul\":1386:1474   */\n    tag_105:\n        /* \"#utility.yul\":1494:1504   */\n      dup1\n        /* \"#utility.yul\":1490:1492   */\n      0x40\n        /* \"#utility.yul\":1483:1505   */\n      mstore\n        /* \"#utility.yul\":1273:1511   */\n      pop\n        /* \"#utility.yul\":1230:1511   */\n      pop\n      pop\n      jump\t// out\n        /* \"#utility.yul\":1517:1646   */\n    tag_59:\n        /* \"#utility.yul\":1551:1557   */\n      0x00\n        /* \"#utility.yul\":1578:1598   */\n      tag_108\n      tag_48\n      jump\t// in\n    tag_108:\n        /* \"#utility.yul\":1568:1598   */\n      swap1\n      pop\n        /* \"#utility.yul\":1607:1640   */\n      tag_109\n        /* \"#utility.yul\":1635:1639   */\n      dup3\n        /* \"#utility.yul\":1627:1633   */\n      dup3\n        /* \"#utility.yul\":1607:1640   */\n      tag_58\n      jump\t// in\n    tag_109:\n        /* \"#utility.yul\":1517:1646   */\n      swap2\n      swap1\n      pop\n      jump\t// out\n        /* \"#utility.yul\":1652:1959   */\n    tag_60:\n        /* \"#utility.yul\":1713:1717   */\n      0x00\n        /* \"#utility.yul\":1803:1821   */\n      0xffffffffffffffff\n        /* \"#utility.yul\":1795:1801   */\n      dup3\n        /* \"#utility.yul\":1792:1822   */\n      gt\n        /* \"#utility.yul\":1789:1845   */\n      iszero\n      tag_111\n      jumpi\n        /* \"#utility.yul\":1825:1843   */\n      tag_112\n      tag_57\n      jump\t// in\n    tag_112:\n        /* \"#utility.yul\":1789:1845   */\n    tag_111:\n        /* \"#utility.yul\":1863:1892   */\n      tag_113\n        /* \"#utility.yul\":1885:1891   */\n      dup3\n        /* \"#utility.yul\":1863:1892   */\n      tag_56\n      jump\t// in\n    tag_113:\n        /* \"#utility.yul\":1855:1892   */\n      swap1\n      pop\n        /* \"#utility.yul\":1947:1951   */\n      0x20\n        /* \"#utility.yul\":1941:1945   */\n      dup2\n        /* \"#utility.yul\":1937:1952   */\n      add\n        /* \"#utility.yul\":1929:1952   */\n      swap1\n      pop\n        /* \"#utility.yul\":1652:1959   */\n      swap2\n      swap1\n      pop\n      jump\t// out\n        /* \"#utility.yul\":1965:2113   */\n    tag_61:\n        /* \"#utility.yul\":2063:2069   */\n      dup3\n        /* \"#utility.yul\":2058:2061   */\n      dup2\n        /* \"#utility.yul\":2053:2056   */\n      dup4\n        /* \"#utility.yul\":2040:2070   */\n      calldatacopy\n        /* \"#utility.yul\":2104:2105   */\n      0x00\n        /* \"#utility.yul\":2095:2101   */\n      dup4\n        /* \"#utility.yul\":2090:2093   */\n      dup4\n        /* \"#utility.yul\":2086:2102   */\n      add\n        /* \"#utility.yul\":2079:2106   */\n      mstore\n        /* \"#utility.yul\":1965:2113   */\n      pop\n      pop\n      pop\n      jump\t// out\n        /* \"#utility.yul\":2119:2542   */\n    tag_62:\n        /* \"#utility.yul\":2196:2201   */\n      0x00\n        /* \"#utility.yul\":2221:2286   */\n      tag_116\n        /* \"#utility.yul\":2237:2285   */\n      tag_117\n        /* \"#utility.yul\":2278:2284   */\n      dup5\n        /* \"#utility.yul\":2237:2285   */\n      tag_60\n      jump\t// in\n    tag_117:\n        /* \"#utility.yul\":2221:2286   */\n      tag_59\n      jump\t// in\n    tag_116:\n        /* \"#utility.yul\":2212:2286   */\n      swap1\n      pop\n        /* \"#utility.yul\":2309:2315   */\n      dup3\n        /* \"#utility.yul\":2302:2307   */\n      dup2\n        /* \"#utility.yul\":2295:2316   */\n      mstore\n        /* \"#utility.yul\":2347:2351   */\n      0x20\n        /* \"#utility.yul\":2340:2345   */\n      dup2\n        /* \"#utility.yul\":2336:2352   */\n      add\n        /* \"#utility.yul\":2385:2388   */\n      dup5\n        /* \"#utility.yul\":2376:2382   */\n      dup5\n        /* \"#utility.yul\":2371:2374   */\n      dup5\n        /* \"#utility.yul\":2367:2383   */\n      add\n        /* \"#utility.yul\":2364:2389   */\n      gt\n        /* \"#utility.yul\":2361:2473   */\n      iszero\n      tag_118\n      jumpi\n        /* \"#utility.yul\":2392:2471   */\n      tag_119\n      tag_55\n      jump\t// in\n    tag_119:\n        /* \"#utility.yul\":2361:2473   */\n    tag_118:\n        /* \"#utility.yul\":2482:2536   */\n      tag_120\n        /* \"#utility.yul\":2529:2535   */\n      dup5\n        /* \"#utility.yul\":2524:2527   */\n      dup3\n        /* \"#utility.yul\":2519:2522   */\n      dup6\n        /* \"#utility.yul\":2482:2536   */\n      tag_61\n      jump\t// in\n    tag_120:\n        /* \"#utility.yul\":2202:2542   */\n      pop\n        /* \"#utility.yul\":2119:2542   */\n      swap4\n      swap3\n      pop\n      pop\n      pop\n      jump\t// out\n        /* \"#utility.yul\":2561:2899   */\n    tag_63:\n        /* \"#utility.yul\":2616:2621   */\n      0x00\n        /* \"#utility.yul\":2665:2668   */\n      dup3\n        /* \"#utility.yul\":2658:2662   */\n      0x1f\n        /* \"#utility.yul\":2650:2656   */\n      dup4\n        /* \"#utility.yul\":2646:2663   */\n      add\n        /* \"#utility.yul\":2642:2669   */\n      slt\n        /* \"#utility.yul\":2632:2754   */\n      tag_122\n      jumpi\n        /* \"#utility.yul\":2673:2752   */\n      tag_123\n      tag_54\n      jump\t// in\n    tag_123:\n        /* \"#utility.yul\":2632:2754   */\n    tag_122:\n        /* \"#utility.yul\":2790:2796   */\n      dup2\n        /* \"#utility.yul\":2777:2797   */\n      calldataload\n        /* \"#utility.yul\":2815:2893   */\n      tag_124\n        /* \"#utility.yul\":2889:2892   */\n      dup5\n        /* \"#utility.yul\":2881:2887   */\n      dup3\n        /* \"#utility.yul\":2874:2878   */\n      0x20\n        /* \"#utility.yul\":2866:2872   */\n      dup7\n        /* \"#utility.yul\":2862:2879   */\n      add\n        /* \"#utility.yul\":2815:2893   */\n      tag_62\n      jump\t// in\n    tag_124:\n        /* \"#utility.yul\":2806:2893   */\n      swap2\n      pop\n        /* \"#utility.yul\":2622:2899   */\n      pop\n        /* \"#utility.yul\":2561:2899   */\n      swap3\n      swap2\n      pop\n      pop\n      jump\t// out\n        /* \"#utility.yul\":2905:3557   */\n    tag_11:\n        /* \"#utility.yul\":2982:2988   */\n      0x00\n        /* \"#utility.yul\":2990:2996   */\n      0x00\n        /* \"#utility.yul\":3039:3041   */\n      0x40\n        /* \"#utility.yul\":3027:3036   */\n      dup4\n        /* \"#utility.yul\":3018:3025   */\n      dup6\n        /* \"#utility.yul\":3014:3037   */\n      sub\n        /* \"#utility.yul\":3010:3042   */\n      slt\n        /* \"#utility.yul\":3007:3126   */\n      iszero\n      tag_126\n      jumpi\n        /* \"#utility.yul\":3045:3124   */\n      tag_127\n      tag_49\n      jump\t// in\n    tag_127:\n        /* \"#utility.yul\":3007:3126   */\n    tag_126:\n        /* \"#utility.yul\":3165:3166   */\n      0x00\n        /* \"#utility.yul\":3190:3243   */\n      tag_128\n        /* \"#utility.yul\":3235:3242   */\n      dup6\n        /* \"#utility.yul\":3226:3232   */\n      dup3\n        /* \"#utility.yul\":3215:3224   */\n      dup7\n        /* \"#utility.yul\":3211:3233   */\n      add\n        /* \"#utility.yul\":3190:3243   */\n      tag_53\n      jump\t// in\n    tag_128:\n        /* \"#utility.yul\":3180:3243   */\n      swap3\n      pop\n        /* \"#utility.yul\":3136:3253   */\n      pop\n        /* \"#utility.yul\":3320:3322   */\n      0x20\n        /* \"#utility.yul\":3309:3318   */\n      dup4\n        /* \"#utility.yul\":3305:3323   */\n      add\n        /* \"#utility.yul\":3292:3324   */\n      calldataload\n        /* \"#utility.yul\":3351:3369   */\n      0xffffffffffffffff\n        /* \"#utility.yul\":3343:3349   */\n      dup2\n        /* \"#utility.yul\":3340:3370   */\n      gt\n        /* \"#utility.yul\":3337:3454   */\n      iszero\n      tag_129\n      jumpi\n        /* \"#utility.yul\":3373:3452   */\n      tag_130\n      tag_50\n      jump\t// in\n    tag_130:\n        /* \"#utility.yul\":3337:3454   */\n    tag_129:\n        /* \"#utility.yul\":3478:3540   */\n      tag_131\n        /* \"#utility.yul\":3532:3539   */\n      dup6\n        /* \"#utility.yul\":3523:3529   */\n      dup3\n        /* \"#utility.yul\":3512:3521   */\n      dup7\n        /* \"#utility.yul\":3508:3530   */\n      add\n        /* \"#utility.yul\":3478:3540   */\n      tag_63\n      jump\t// in\n    tag_131:\n        /* \"#utility.yul\":3468:3540   */\n      swap2\n      pop\n        /* \"#utility.yul\":3263:3550   */\n      pop\n        /* \"#utility.yul\":2905:3557   */\n      swap3\n      pop\n      swap3\n      swap1\n      pop\n      jump\t// out\n        /* \"#utility.yul\":3563:3689   */\n    tag_64:\n        /* \"#utility.yul\":3600:3607   */\n      0x00\n        /* \"#utility.yul\":3640:3682   */\n      0xffffffffffffffffffffffffffffffffffffffff\n        /* \"#utility.yul\":3633:3638   */\n      dup3\n        /* \"#utility.yul\":3629:3683   */\n      and\n        /* \"#utility.yul\":3618:3683   */\n      swap1\n      pop\n        /* \"#utility.yul\":3563:3689   */\n      swap2\n      swap1\n      pop\n      jump\t// out\n        /* \"#utility.yul\":3695:3791   */\n    tag_65:\n        /* \"#utility.yul\":3732:3739   */\n      0x00\n        /* \"#utility.yul\":3761:3785   */\n      tag_134\n        /* \"#utility.yul\":3779:3784   */\n      dup3\n        /* \"#utility.yul\":3761:3785   */\n      tag_64\n      jump\t// in\n    tag_134:\n        /* \"#utility.yul\":3750:3785   */\n      swap1\n      pop\n        /* \"#utility.yul\":3695:3791   */\n      swap2\n      swap1\n      pop\n      jump\t// out\n        /* \"#utility.yul\":3797:3915   */\n    tag_66:\n        /* \"#utility.yul\":3884:3908   */\n      tag_136\n        /* \"#utility.yul\":3902:3907   */\n      dup2\n        /* \"#utility.yul\":3884:3908   */\n      tag_65\n      jump\t// in\n    tag_136:\n        /* \"#utility.yul\":3879:3882   */\n      dup3\n        /* \"#utility.yul\":3872:3909   */\n      mstore\n        /* \"#utility.yul\":3797:3915   */\n      pop\n      pop\n      jump\t// out\n        /* \"#utility.yul\":3921:4143   */\n    tag_14:\n        /* \"#utility.yul\":4014:4018   */\n      0x00\n        /* \"#utility.yul\":4052:4054   */\n      0x20\n        /* \"#utility.yul\":4041:4050   */\n      dup3\n        /* \"#utility.yul\":4037:4055   */\n      add\n        /* \"#utility.yul\":4029:4055   */\n      swap1\n      pop\n        /* \"#utility.yul\":4065:4136   */\n      tag_138\n        /* \"#utility.yul\":4133:4134   */\n      0x00\n        /* \"#utility.yul\":4122:4131   */\n      dup4\n        /* \"#utility.yul\":4118:4135   */\n      add\n        /* \"#utility.yul\":4109:4115   */\n      dup5\n        /* \"#utility.yul\":4065:4136   */\n      tag_66\n      jump\t// in\n    tag_138:\n        /* \"#utility.yul\":3921:4143   */\n      swap3\n      swap2\n      pop\n      pop\n      jump\t// out\n        /* \"#utility.yul\":4149:4226   */\n    tag_67:\n        /* \"#utility.yul\":4186:4193   */\n      0x00\n        /* \"#utility.yul\":4215:4220   */\n      dup2\n        /* \"#utility.yul\":4204:4220   */\n      swap1\n      pop\n        /* \"#utility.yul\":4149:4226   */\n      swap2\n      swap1\n      pop\n      jump\t// out\n        /* \"#utility.yul\":4232:4350   */\n    tag_68:\n        /* \"#utility.yul\":4319:4343   */\n      tag_141\n        /* \"#utility.yul\":4337:4342   */\n      dup2\n        /* \"#utility.yul\":4319:4343   */\n      tag_67\n      jump\t// in\n    tag_141:\n        /* \"#utility.yul\":4314:4317   */\n      dup3\n        /* \"#utility.yul\":4307:4344   */\n      mstore\n        /* \"#utility.yul\":4232:4350   */\n      pop\n      pop\n      jump\t// out\n        /* \"#utility.yul\":4356:4578   */\n    tag_19:\n        /* \"#utility.yul\":4449:4453   */\n      0x00\n        /* \"#utility.yul\":4487:4489   */\n      0x20\n        /* \"#utility.yul\":4476:4485   */\n      dup3\n        /* \"#utility.yul\":4472:4490   */\n      add\n        /* \"#utility.yul\":4464:4490   */\n      swap1\n      pop\n        /* \"#utility.yul\":4500:4571   */\n      tag_143\n        /* \"#utility.yul\":4568:4569   */\n      0x00\n        /* \"#utility.yul\":4557:4566   */\n      dup4\n        /* \"#utility.yul\":4553:4570   */\n      add\n        /* \"#utility.yul\":4544:4550   */\n      dup5\n        /* \"#utility.yul\":4500:4571   */\n      tag_68\n      jump\t// in\n    tag_143:\n        /* \"#utility.yul\":4356:4578   */\n      swap3\n      swap2\n      pop\n      pop\n      jump\t// out\n        /* \"#utility.yul\":4584:4706   */\n    tag_69:\n        /* \"#utility.yul\":4657:4681   */\n      tag_145\n        /* \"#utility.yul\":4675:4680   */\n      dup2\n        /* \"#utility.yul\":4657:4681   */\n      tag_65\n      jump\t// in\n    tag_145:\n        /* \"#utility.yul\":4650:4655   */\n      dup2\n        /* \"#utility.yul\":4647:4682   */\n      eq\n        /* \"#utility.yul\":4637:4700   */\n      tag_146\n      jumpi\n        /* \"#utility.yul\":4696:4697   */\n      0x00\n        /* \"#utility.yul\":4693:4694   */\n      0x00\n        /* \"#utility.yul\":4686:4698   */\n      revert\n        /* \"#utility.yul\":4637:4700   */\n    tag_146:\n        /* \"#utility.yul\":4584:4706   */\n      pop\n      jump\t// out\n        /* \"#utility.yul\":4712:4851   */\n    tag_70:\n        /* \"#utility.yul\":4758:4763   */\n      0x00\n        /* \"#utility.yul\":4796:4802   */\n      dup2\n        /* \"#utility.yul\":4783:4803   */\n      calldataload\n        /* \"#utility.yul\":4774:4803   */\n      swap1\n      pop\n        /* \"#utility.yul\":4812:4845   */\n      tag_148\n        /* \"#utility.yul\":4839:4844   */\n      dup2\n        /* \"#utility.yul\":4812:4845   */\n      tag_69\n      jump\t// in\n    tag_148:\n        /* \"#utility.yul\":4712:4851   */\n      swap3\n      swap2\n      pop\n      pop\n      jump\t// out\n        /* \"#utility.yul\":4857:4979   */\n    tag_71:\n        /* \"#utility.yul\":4930:4954   */\n      tag_150\n        /* \"#utility.yul\":4948:4953   */\n      dup2\n        /* \"#utility.yul\":4930:4954   */\n      tag_67\n      jump\t// in\n    tag_150:\n        /* \"#utility.yul\":4923:4928   */\n      dup2\n        /* \"#utility.yul\":4920:4955   */\n      eq\n        /* \"#utility.yul\":4910:4973   */\n      tag_151\n      jumpi\n        /* \"#utility.yul\":4969:4970   */\n      0x00\n        /* \"#utility.yul\":4966:4967   */\n      0x00\n        /* \"#utility.yul\":4959:4971   */\n      revert\n        /* \"#utility.yul\":4910:4973   */\n    tag_151:\n        /* \"#utility.yul\":4857:4979   */\n      pop\n      jump\t// out\n        /* \"#utility.yul\":4985:5124   */\n    tag_72:\n        /* \"#utility.yul\":5031:5036   */\n      0x00\n        /* \"#utility.yul\":5069:5075   */\n      dup2\n        /* \"#utility.yul\":5056:5076   */\n      calldataload\n        /* \"#utility.yul\":5047:5076   */\n      swap1\n      pop\n        /* \"#utility.yul\":5085:5118   */\n      tag_153\n        /* \"#utility.yul\":5112:5117   */\n      dup2\n        /* \"#utility.yul\":5085:5118   */\n      tag_71\n      jump\t// in\n    tag_153:\n        /* \"#utility.yul\":4985:5124   */\n      swap3\n      swap2\n      pop\n      pop\n      jump\t// out\n        /* \"#utility.yul\":5130:5247   */\n    tag_73:\n        /* \"#utility.yul\":5239:5240   */\n      0x00\n        /* \"#utility.yul\":5236:5237   */\n      0x00\n        /* \"#utility.yul\":5229:5241   */\n      revert\n        /* \"#utility.yul\":5253:5370   */\n    tag_74:\n        /* \"#utility.yul\":5362:5363   */\n      0x00\n        /* \"#utility.yul\":5359:5360   */\n      0x00\n        /* \"#utility.yul\":5352:5364   */\n      revert\n        /* \"#utility.yul\":5389:5941   */\n    tag_75:\n        /* \"#utility.yul\":5446:5454   */\n      0x00\n        /* \"#utility.yul\":5456:5462   */\n      0x00\n        /* \"#utility.yul\":5506:5509   */\n      dup4\n        /* \"#utility.yul\":5499:5503   */\n      0x1f\n        /* \"#utility.yul\":5491:5497   */\n      dup5\n        /* \"#utility.yul\":5487:5504   */\n      add\n        /* \"#utility.yul\":5483:5510   */\n      slt\n        /* \"#utility.yul\":5473:5595   */\n      tag_157\n      jumpi\n        /* \"#utility.yul\":5514:5593   */\n      tag_158\n      tag_54\n      jump\t// in\n    tag_158:\n        /* \"#utility.yul\":5473:5595   */\n    tag_157:\n        /* \"#utility.yul\":5627:5633   */\n      dup3\n        /* \"#utility.yul\":5614:5634   */\n      calldataload\n        /* \"#utility.yul\":5604:5634   */\n      swap1\n      pop\n        /* \"#utility.yul\":5657:5675   */\n      0xffffffffffffffff\n        /* \"#utility.yul\":5649:5655   */\n      dup2\n        /* \"#utility.yul\":5646:5676   */\n      gt\n        /* \"#utility.yul\":5643:5760   */\n      iszero\n      tag_159\n      jumpi\n        /* \"#utility.yul\":5679:5758   */\n      tag_160\n      tag_73\n      jump\t// in\n    tag_160:\n        /* \"#utility.yul\":5643:5760   */\n    tag_159:\n        /* \"#utility.yul\":5793:5797   */\n      0x20\n        /* \"#utility.yul\":5785:5791   */\n      dup4\n        /* \"#utility.yul\":5781:5798   */\n      add\n        /* \"#utility.yul\":5769:5798   */\n      swap2\n      pop\n        /* \"#utility.yul\":5847:5850   */\n      dup4\n        /* \"#utility.yul\":5839:5843   */\n      0x01\n        /* \"#utility.yul\":5831:5837   */\n      dup3\n        /* \"#utility.yul\":5827:5844   */\n      mul\n        /* \"#utility.yul\":5817:5825   */\n      dup4\n        /* \"#utility.yul\":5813:5845   */\n      add\n        /* \"#utility.yul\":5810:5851   */\n      gt\n        /* \"#utility.yul\":5807:5935   */\n      iszero\n      tag_161\n      jumpi\n        /* \"#utility.yul\":5854:5933   */\n      tag_162\n      tag_74\n      jump\t// in\n    tag_162:\n        /* \"#utility.yul\":5807:5935   */\n    tag_161:\n        /* \"#utility.yul\":5389:5941   */\n      swap3\n      pop\n      swap3\n      swap1\n      pop\n      jump\t// out\n        /* \"#utility.yul\":5947:6764   */\n    tag_23:\n        /* \"#utility.yul\":6035:6041   */\n      0x00\n        /* \"#utility.yul\":6043:6049   */\n      0x00\n        /* \"#utility.yul\":6051:6057   */\n      0x00\n        /* \"#utility.yul\":6059:6065   */\n      0x00\n        /* \"#utility.yul\":6108:6110   */\n      0x60\n        /* \"#utility.yul\":6096:6105   */\n      dup6\n        /* \"#utility.yul\":6087:6094   */\n      dup8\n        /* \"#utility.yul\":6083:6106   */\n      sub\n        /* \"#utility.yul\":6079:6111   */\n      slt\n        /* \"#utility.yul\":6076:6195   */\n      iszero\n      tag_164\n      jumpi\n        /* \"#utility.yul\":6114:6193   */\n      tag_165\n      tag_49\n      jump\t// in\n    tag_165:\n        /* \"#utility.yul\":6076:6195   */\n    tag_164:\n        /* \"#utility.yul\":6234:6235   */\n      0x00\n        /* \"#utility.yul\":6259:6312   */\n      tag_166\n        /* \"#utility.yul\":6304:6311   */\n      dup8\n        /* \"#utility.yul\":6295:6301   */\n      dup3\n        /* \"#utility.yul\":6284:6293   */\n      dup9\n        /* \"#utility.yul\":6280:6302   */\n      add\n        /* \"#utility.yul\":6259:6312   */\n      tag_70\n      jump\t// in\n    tag_166:\n        /* \"#utility.yul\":6249:6312   */\n      swap5\n      pop\n        /* \"#utility.yul\":6205:6322   */\n      pop\n        /* \"#utility.yul\":6361:6363   */\n      0x20\n        /* \"#utility.yul\":6387:6440   */\n      tag_167\n        /* \"#utility.yul\":6432:6439   */\n      dup8\n        /* \"#utility.yul\":6423:6429   */\n      dup3\n        /* \"#utility.yul\":6412:6421   */\n      dup9\n        /* \"#utility.yul\":6408:6430   */\n      add\n        /* \"#utility.yul\":6387:6440   */\n      tag_72\n      jump\t// in\n    tag_167:\n        /* \"#utility.yul\":6377:6440   */\n      swap4\n      pop\n        /* \"#utility.yul\":6332:6450   */\n      pop\n        /* \"#utility.yul\":6517:6519   */\n      0x40\n        /* \"#utility.yul\":6506:6515   */\n      dup6\n        /* \"#utility.yul\":6502:6520   */\n      add\n        /* \"#utility.yul\":6489:6521   */\n      calldataload\n        /* \"#utility.yul\":6548:6566   */\n      0xffffffffffffffff\n        /* \"#utility.yul\":6540:6546   */\n      dup2\n        /* \"#utility.yul\":6537:6567   */\n      gt\n        /* \"#utility.yul\":6534:6651   */\n      iszero\n      tag_168\n      jumpi\n        /* \"#utility.yul\":6570:6649   */\n      tag_169\n      tag_50\n      jump\t// in\n    tag_169:\n        /* \"#utility.yul\":6534:6651   */\n    tag_168:\n        /* \"#utility.yul\":6683:6747   */\n      tag_170\n        /* \"#utility.yul\":6739:6746   */\n      dup8\n        /* \"#utility.yul\":6730:6736   */\n      dup3\n        /* \"#utility.yul\":6719:6728   */\n      dup9\n        /* \"#utility.yul\":6715:6737   */\n      add\n        /* \"#utility.yul\":6683:6747   */\n      tag_75\n      jump\t// in\n    tag_170:\n        /* \"#utility.yul\":6665:6747   */\n      swap3\n      pop\n      swap3\n      pop\n        /* \"#utility.yul\":6460:6757   */\n      pop\n        /* \"#utility.yul\":5947:6764   */\n      swap3\n      swap6\n      swap2\n      swap5\n      pop\n      swap3\n      pop\n      jump\t// out\n        /* \"#utility.yul\":6770:6939   */\n    tag_76:\n        /* \"#utility.yul\":6854:6865   */\n      0x00\n        /* \"#utility.yul\":6888:6894   */\n      dup3\n        /* \"#utility.yul\":6883:6886   */\n      dup3\n        /* \"#utility.yul\":6876:6895   */\n      mstore\n        /* \"#utility.yul\":6928:6932   */\n      0x20\n        /* \"#utility.yul\":6923:6926   */\n      dup3\n        /* \"#utility.yul\":6919:6933   */\n      add\n        /* \"#utility.yul\":6904:6933   */\n      swap1\n      pop\n        /* \"#utility.yul\":6770:6939   */\n      swap3\n      swap2\n      pop\n      pop\n      jump\t// out\n        /* \"#utility.yul\":6945:7119   */\n    tag_77:\n        /* \"#utility.yul\":7085:7111   */\n      0x496e76616c6964207369676e6174757265206c656e6774680000000000000000\n        /* \"#utility.yul\":7081:7082   */\n      0x00\n        /* \"#utility.yul\":7073:7079   */\n      dup3\n        /* \"#utility.yul\":7069:7083   */\n      add\n        /* \"#utility.yul\":7062:7112   */\n      mstore\n        /* \"#utility.yul\":6945:7119   */\n      pop\n      jump\t// out\n        /* \"#utility.yul\":7125:7491   */\n    tag_78:\n        /* \"#utility.yul\":7267:7270   */\n      0x00\n        /* \"#utility.yul\":7288:7355   */\n      tag_174\n        /* \"#utility.yul\":7352:7354   */\n      0x18\n        /* \"#utility.yul\":7347:7350   */\n      dup4\n        /* \"#utility.yul\":7288:7355   */\n      tag_76\n      jump\t// in\n    tag_174:\n        /* \"#utility.yul\":7281:7355   */\n      swap2\n      pop\n        /* \"#utility.yul\":7364:7457   */\n      tag_175\n        /* \"#utility.yul\":7453:7456   */\n      dup3\n        /* \"#utility.yul\":7364:7457   */\n      tag_77\n      jump\t// in\n    tag_175:\n        /* \"#utility.yul\":7482:7484   */\n      0x20\n        /* \"#utility.yul\":7477:7480   */\n      dup3\n        /* \"#utility.yul\":7473:7485   */\n      add\n        /* \"#utility.yul\":7466:7485   */\n      swap1\n      pop\n        /* \"#utility.yul\":7125:7491   */\n      swap2\n      swap1\n      pop\n      jump\t// out\n        /* \"#utility.yul\":7497:7916   */\n    tag_28:\n        /* \"#utility.yul\":7663:7667   */\n      0x00\n        /* \"#utility.yul\":7701:7703   */\n      0x20\n        /* \"#utility.yul\":7690:7699   */\n      dup3\n        /* \"#utility.yul\":7686:7704   */\n      add\n        /* \"#utility.yul\":7678:7704   */\n      swap1\n      pop\n        /* \"#utility.yul\":7750:7759   */\n      dup2\n        /* \"#utility.yul\":7744:7748   */\n      dup2\n        /* \"#utility.yul\":7740:7760   */\n      sub\n        /* \"#utility.yul\":7736:7737   */\n      0x00\n        /* \"#utility.yul\":7725:7734   */\n      dup4\n        /* \"#utility.yul\":7721:7738   */\n      add\n        /* \"#utility.yul\":7714:7761   */\n      mstore\n        /* \"#utility.yul\":7778:7909   */\n      tag_177\n        /* \"#utility.yul\":7904:7908   */\n      dup2\n        /* \"#utility.yul\":7778:7909   */\n      tag_78\n      jump\t// in\n    tag_177:\n        /* \"#utility.yul\":7770:7909   */\n      swap1\n      pop\n        /* \"#utility.yul\":7497:7916   */\n      swap2\n      swap1\n      pop\n      jump\t// out\n        /* \"#utility.yul\":7922:8040   */\n    tag_79:\n        /* \"#utility.yul\":8009:8033   */\n      tag_179\n        /* \"#utility.yul\":8027:8032   */\n      dup2\n        /* \"#utility.yul\":8009:8033   */\n      tag_51\n      jump\t// in\n    tag_179:\n        /* \"#utility.yul\":8004:8007   */\n      dup3\n        /* \"#utility.yul\":7997:8034   */\n      mstore\n        /* \"#utility.yul\":7922:8040   */\n      pop\n      pop\n      jump\t// out\n        /* \"#utility.yul\":8046:8132   */\n    tag_80:\n        /* \"#utility.yul\":8081:8088   */\n      0x00\n        /* \"#utility.yul\":8121:8125   */\n      0xff\n        /* \"#utility.yul\":8114:8119   */\n      dup3\n        /* \"#utility.yul\":8110:8126   */\n      and\n        /* \"#utility.yul\":8099:8126   */\n      swap1\n      pop\n        /* \"#utility.yul\":8046:8132   */\n      swap2\n      swap1\n      pop\n      jump\t// out\n        /* \"#utility.yul\":8138:8250   */\n    tag_81:\n        /* \"#utility.yul\":8221:8243   */\n      tag_182\n        /* \"#utility.yul\":8237:8242   */\n      dup2\n        /* \"#utility.yul\":8221:8243   */\n      tag_80\n      jump\t// in\n    tag_182:\n        /* \"#utility.yul\":8216:8219   */\n      dup3\n        /* \"#utility.yul\":8209:8244   */\n      mstore\n        /* \"#utility.yul\":8138:8250   */\n      pop\n      pop\n      jump\t// out\n        /* \"#utility.yul\":8256:8801   */\n    tag_30:\n        /* \"#utility.yul\":8429:8433   */\n      0x00\n        /* \"#utility.yul\":8467:8470   */\n      0x80\n        /* \"#utility.yul\":8456:8465   */\n      dup3\n        /* \"#utility.yul\":8452:8471   */\n      add\n        /* \"#utility.yul\":8444:8471   */\n      swap1\n      pop\n        /* \"#utility.yul\":8481:8552   */\n      tag_184\n        /* \"#utility.yul\":8549:8550   */\n      0x00\n        /* \"#utility.yul\":8538:8547   */\n      dup4\n        /* \"#utility.yul\":8534:8551   */\n      add\n        /* \"#utility.yul\":8525:8531   */\n      dup8\n        /* \"#utility.yul\":8481:8552   */\n      tag_79\n      jump\t// in\n    tag_184:\n        /* \"#utility.yul\":8562:8630   */\n      tag_185\n        /* \"#utility.yul\":8626:8628   */\n      0x20\n        /* \"#utility.yul\":8615:8624   */\n      dup4\n        /* \"#utility.yul\":8611:8629   */\n      add\n        /* \"#utility.yul\":8602:8608   */\n      dup7\n        /* \"#utility.yul\":8562:8630   */\n      tag_81\n      jump\t// in\n    tag_185:\n        /* \"#utility.yul\":8640:8712   */\n      tag_186\n        /* \"#utility.yul\":8708:8710   */\n      0x40\n        /* \"#utility.yul\":8697:8706   */\n      dup4\n        /* \"#utility.yul\":8693:8711   */\n      add\n        /* \"#utility.yul\":8684:8690   */\n      dup6\n        /* \"#utility.yul\":8640:8712   */\n      tag_79\n      jump\t// in\n    tag_186:\n        /* \"#utility.yul\":8722:8794   */\n      tag_187\n        /* \"#utility.yul\":8790:8792   */\n      0x60\n        /* \"#utility.yul\":8779:8788   */\n      dup4\n        /* \"#utility.yul\":8775:8793   */\n      add\n        /* \"#utility.yul\":8766:8772   */\n      dup5\n        /* \"#utility.yul\":8722:8794   */\n      tag_79\n      jump\t// in\n    tag_187:\n        /* \"#utility.yul\":8256:8801   */\n      swap6\n      swap5\n      pop\n      pop\n      pop\n      pop\n      pop\n      jump\t// out\n        /* \"#utility.yul\":8807:9029   */\n    tag_82:\n        /* \"#utility.yul\":8947:8981   */\n      0x596f75277265206e6f7420746865206f776e6572206f6620746865206163636f\n        /* \"#utility.yul\":8943:8944   */\n      0x00\n        /* \"#utility.yul\":8935:8941   */\n      dup3\n        /* \"#utility.yul\":8931:8945   */\n      add\n        /* \"#utility.yul\":8924:8982   */\n      mstore\n        /* \"#utility.yul\":9016:9021   */\n      0x756e740000000000000000000000000000000000000000000000000000000000\n        /* \"#utility.yul\":9011:9013   */\n      0x20\n        /* \"#utility.yul\":9003:9009   */\n      dup3\n        /* \"#utility.yul\":8999:9014   */\n      add\n        /* \"#utility.yul\":8992:9022   */\n      mstore\n        /* \"#utility.yul\":8807:9029   */\n      pop\n      jump\t// out\n        /* \"#utility.yul\":9035:9401   */\n    tag_83:\n        /* \"#utility.yul\":9177:9180   */\n      0x00\n        /* \"#utility.yul\":9198:9265   */\n      tag_190\n        /* \"#utility.yul\":9262:9264   */\n      0x23\n        /* \"#utility.yul\":9257:9260   */\n      dup4\n        /* \"#utility.yul\":9198:9265   */\n      tag_76\n      jump\t// in\n    tag_190:\n        /* \"#utility.yul\":9191:9265   */\n      swap2\n      pop\n        /* \"#utility.yul\":9274:9367   */\n      tag_191\n        /* \"#utility.yul\":9363:9366   */\n      dup3\n        /* \"#utility.yul\":9274:9367   */\n      tag_82\n      jump\t// in\n    tag_191:\n        /* \"#utility.yul\":9392:9394   */\n      0x40\n        /* \"#utility.yul\":9387:9390   */\n      dup3\n        /* \"#utility.yul\":9383:9395   */\n      add\n        /* \"#utility.yul\":9376:9395   */\n      swap1\n      pop\n        /* \"#utility.yul\":9035:9401   */\n      swap2\n      swap1\n      pop\n      jump\t// out\n        /* \"#utility.yul\":9407:9826   */\n    tag_36:\n        /* \"#utility.yul\":9573:9577   */\n      0x00\n        /* \"#utility.yul\":9611:9613   */\n      0x20\n        /* \"#utility.yul\":9600:9609   */\n      dup3\n        /* \"#utility.yul\":9596:9614   */\n      add\n        /* \"#utility.yul\":9588:9614   */\n      swap1\n      pop\n        /* \"#utility.yul\":9660:9669   */\n      dup2\n        /* \"#utility.yul\":9654:9658   */\n      dup2\n        /* \"#utility.yul\":9650:9670   */\n      sub\n        /* \"#utility.yul\":9646:9647   */\n      0x00\n        /* \"#utility.yul\":9635:9644   */\n      dup4\n        /* \"#utility.yul\":9631:9648   */\n      add\n        /* \"#utility.yul\":9624:9671   */\n      mstore\n        /* \"#utility.yul\":9688:9819   */\n      tag_193\n        /* \"#utility.yul\":9814:9818   */\n      dup2\n        /* \"#utility.yul\":9688:9819   */\n      tag_83\n      jump\t// in\n    tag_193:\n        /* \"#utility.yul\":9680:9819   */\n      swap1\n      pop\n        /* \"#utility.yul\":9407:9826   */\n      swap2\n      swap1\n      pop\n      jump\t// out\n        /* \"#utility.yul\":9832:10012   */\n    tag_84:\n        /* \"#utility.yul\":9880:9957   */\n      0x4e487b7100000000000000000000000000000000000000000000000000000000\n        /* \"#utility.yul\":9877:9878   */\n      0x00\n        /* \"#utility.yul\":9870:9958   */\n      mstore\n        /* \"#utility.yul\":9977:9981   */\n      0x11\n        /* \"#utility.yul\":9974:9975   */\n      0x04\n        /* \"#utility.yul\":9967:9982   */\n      mstore\n        /* \"#utility.yul\":10001:10005   */\n      0x24\n        /* \"#utility.yul\":9998:9999   */\n      0x00\n        /* \"#utility.yul\":9991:10006   */\n      revert\n        /* \"#utility.yul\":10018:10251   */\n    tag_39:\n        /* \"#utility.yul\":10057:10060   */\n      0x00\n        /* \"#utility.yul\":10080:10104   */\n      tag_196\n        /* \"#utility.yul\":10098:10103   */\n      dup3\n        /* \"#utility.yul\":10080:10104   */\n      tag_67\n      jump\t// in\n    tag_196:\n        /* \"#utility.yul\":10071:10104   */\n      swap2\n      pop\n        /* \"#utility.yul\":10126:10192   */\n      0xffffffffffffffffffffffffffffffffffffffffffffffffffffffffffffffff\n        /* \"#utility.yul\":10119:10124   */\n      dup3\n        /* \"#utility.yul\":10116:10193   */\n      sub\n        /* \"#utility.yul\":10113:10216   */\n      tag_197\n      jumpi\n        /* \"#utility.yul\":10196:10214   */\n      tag_198\n      tag_84\n      jump\t// in\n    tag_198:\n        /* \"#utility.yul\":10113:10216   */\n    tag_197:\n        /* \"#utility.yul\":10243:10244   */\n      0x01\n        /* \"#utility.yul\":10236:10241   */\n      dup3\n        /* \"#utility.yul\":10232:10245   */\n      add\n        /* \"#utility.yul\":10225:10245   */\n      swap1\n      pop\n        /* \"#utility.yul\":10018:10251   */\n      swap2\n      swap1\n      pop\n      jump\t// out\n        /* \"#utility.yul\":10257:10404   */\n    tag_85:\n        /* \"#utility.yul\":10358:10369   */\n      0x00\n        /* \"#utility.yul\":10395:10398   */\n      dup2\n        /* \"#utility.yul\":10380:10398   */\n      swap1\n      pop\n        /* \"#utility.yul\":10257:10404   */\n      swap3\n      swap2\n      pop\n      pop\n      jump\t// out\n        /* \"#utility.yul\":10432:10759   */\n    tag_86:\n        /* \"#utility.yul\":10546:10549   */\n      0x00\n        /* \"#utility.yul\":10567:10655   */\n      tag_201\n        /* \"#utility.yul\":10648:10654   */\n      dup4\n        /* \"#utility.yul\":10643:10646   */\n      dup6\n        /* \"#utility.yul\":10567:10655   */\n      tag_85\n      jump\t// in\n    tag_201:\n        /* \"#utility.yul\":10560:10655   */\n      swap4\n      pop\n        /* \"#utility.yul\":10665:10721   */\n      tag_202\n        /* \"#utility.yul\":10714:10720   */\n      dup4\n        /* \"#utility.yul\":10709:10712   */\n      dup6\n        /* \"#utility.yul\":10702:10707   */\n      dup5\n        /* \"#utility.yul\":10665:10721   */\n      tag_61\n      jump\t// in\n    tag_202:\n        /* \"#utility.yul\":10746:10752   */\n      dup3\n        /* \"#utility.yul\":10741:10744   */\n      dup5\n        /* \"#utility.yul\":10737:10753   */\n      add\n        /* \"#utility.yul\":10730:10753   */\n      swap1\n      pop\n        /* \"#utility.yul\":10432:10759   */\n      swap4\n      swap3\n      pop\n      pop\n      pop\n      jump\t// out\n        /* \"#utility.yul\":10765:11056   */\n    tag_41:\n        /* \"#utility.yul\":10905:10908   */\n      0x00\n        /* \"#utility.yul\":10927:11030   */\n      tag_204\n        /* \"#utility.yul\":11026:11029   */\n      dup3\n        /* \"#utility.yul\":11017:11023   */\n      dup5\n        /* \"#utility.yul\":11009:11015   */\n      dup7\n        /* \"#utility.yul\":10927:11030   */\n      tag_86\n      jump\t// in\n    tag_204:\n        /* \"#utility.yul\":10920:11030   */\n      swap2\n      pop\n        /* \"#utility.yul\":11047:11050   */\n      dup2\n        /* \"#utility.yul\":11040:11050   */\n      swap1\n      pop\n        /* \"#utility.yul\":10765:11056   */\n      swap4\n      swap3\n      pop\n      pop\n      pop\n      jump\t// out\n        /* \"#utility.yul\":11062:11227   */\n    tag_87:\n        /* \"#utility.yul\":11202:11219   */\n      0x457865637574696f6e206661696c730000000000000000000000000000000000\n        /* \"#utility.yul\":11198:11199   */\n      0x00\n        /* \"#utility.yul\":11190:11196   */\n      dup3\n        /* \"#utility.yul\":11186:11200   */\n      add\n        /* \"#utility.yul\":11179:11220   */\n      mstore\n        /* \"#utility.yul\":11062:11227   */\n      pop\n      jump\t// out\n        /* \"#utility.yul\":11233:11599   */\n    tag_88:\n        /* \"#utility.yul\":11375:11378   */\n      0x00\n        /* \"#utility.yul\":11396:11463   */\n      tag_207\n        /* \"#utility.yul\":11460:11462   */\n      0x0f\n        /* \"#utility.yul\":11455:11458   */\n      dup4\n        /* \"#utility.yul\":11396:11463   */\n      tag_76\n      jump\t// in\n    tag_207:\n        /* \"#utility.yul\":11389:11463   */\n      swap2\n      pop\n        /* \"#utility.yul\":11472:11565   */\n      tag_208\n        /* \"#utility.yul\":11561:11564   */\n      dup3\n        /* \"#utility.yul\":11472:11565   */\n      tag_87\n      jump\t// in\n    tag_208:\n        /* \"#utility.yul\":11590:11592   */\n      0x20\n        /* \"#utility.yul\":11585:11588   */\n      dup3\n        /* \"#utility.yul\":11581:11593   */\n      add\n        /* \"#utility.yul\":11574:11593   */\n      swap1\n      pop\n        /* \"#utility.yul\":11233:11599   */\n      swap2\n      swap1\n      pop\n      jump\t// out\n        /* \"#utility.yul\":11605:12024   */\n    tag_47:\n        /* \"#utility.yul\":11771:11775   */\n      0x00\n        /* \"#utility.yul\":11809:11811   */\n      0x20\n        /* \"#utility.yul\":11798:11807   */\n      dup3\n        /* \"#utility.yul\":11794:11812   */\n      add\n        /* \"#utility.yul\":11786:11812   */\n      swap1\n      pop\n        /* \"#utility.yul\":11858:11867   */\n      dup2\n        /* \"#utility.yul\":11852:11856   */\n      dup2\n        /* \"#utility.yul\":11848:11868   */\n      sub\n        /* \"#utility.yul\":11844:11845   */\n      0x00\n        /* \"#utility.yul\":11833:11842   */\n      dup4\n        /* \"#utility.yul\":11829:11846   */\n      add\n        /* \"#utility.yul\":11822:11869   */\n      mstore\n        /* \"#utility.yul\":11886:12017   */\n      tag_210\n        /* \"#utility.yul\":12012:12016   */\n      dup2\n        /* \"#utility.yul\":11886:12017   */\n      tag_88\n      jump\t// in\n    tag_210:\n        /* \"#utility.yul\":11878:12017   */\n      swap1\n      pop\n        /* \"#utility.yul\":11605:12024   */\n      swap2\n      swap1\n      pop\n      jump\t// out\n\n    auxdata: 0xa2646970667358221220816f046035d74806251fa912dce2ba2a0c97af643647e91e42870ed662785a8564736f6c634300081e0033\n}\n",
				"bytecode": {
					"linkReferences": {},
					"object": "608060405234801561000f575f5ffd5b50604051610a40380380610a40833981810160405281019061003191906100d4565b805f5f6101000a81548173ffffffffffffffffffffffffffffffffffffffff021916908373ffffffffffffffffffffffffffffffffffffffff160217905550506100ff565b5f5ffd5b5f73ffffffffffffffffffffffffffffffffffffffff82169050919050565b5f6100a38261007a565b9050919050565b6100b381610099565b81146100bd575f5ffd5b50565b5f815190506100ce816100aa565b92915050565b5f602082840312156100e9576100e8610076565b5b5f6100f6848285016100c0565b91505092915050565b6109348061010c5f395ff3fe608060405260043610610037575f3560e01c806397aba7f914610042578063affed0e01461007e578063b61d27f6146100a85761003e565b3661003e57005b5f5ffd5b34801561004d575f5ffd5b5061006860048036038101906100639190610464565b6100d0565b60405161007591906104fd565b60405180910390f35b348015610089575f5ffd5b50610092610186565b60405161009f919061052e565b60405180910390f35b3480156100b3575f5ffd5b506100ce60048036038101906100c991906105f8565b61018c565b005b5f6041825114610115576040517f08c379a000000000000000000000000000000000000000000000000000000000815260040161010c906106c3565b60405180910390fd5b5f5f5f602085015192506040850151915060608501515f1a90506001868285856040515f8152602001604052604051610151949392919061070b565b6020604051602081039080840390855afa158015610171573d5f5f3e3d5ffd5b50505060206040510351935050505092915050565b60015481565b5f5f9054906101000a900473ffffffffffffffffffffffffffffffffffffffff1673ffffffffffffffffffffffffffffffffffffffff163373ffffffffffffffffffffffffffffffffffffffff161461021a576040517f08c379a0000000000000000000000000000000000000000000000000000000008152600401610211906107be565b60405180910390fd5b60015f81548092919061022c90610809565b91905055505f8473ffffffffffffffffffffffffffffffffffffffff1684848460405161025a92919061087e565b5f6040518083038185875af1925050503d805f8114610294576040519150601f19603f3d011682016040523d82523d5f602084013e610299565b606091505b50509050806102dd576040517f08c379a00000000000000000000000000000000000000000000000000000000081526004016102d4906108e0565b60405180910390fd5b5050505050565b5f604051905090565b5f5ffd5b5f5ffd5b5f819050919050565b610307816102f5565b8114610311575f5ffd5b50565b5f81359050610322816102fe565b92915050565b5f5ffd5b5f5ffd5b5f601f19601f8301169050919050565b7f4e487b71000000000000000000000000000000000000000000000000000000005f52604160045260245ffd5b61037682610330565b810181811067ffffffffffffffff8211171561039557610394610340565b5b80604052505050565b5f6103a76102e4565b90506103b3828261036d565b919050565b5f67ffffffffffffffff8211156103d2576103d1610340565b5b6103db82610330565b9050602081019050919050565b828183375f83830152505050565b5f610408610403846103b8565b61039e565b9050828152602081018484840111156104245761042361032c565b5b61042f8482856103e8565b509392505050565b5f82601f83011261044b5761044a610328565b5b813561045b8482602086016103f6565b91505092915050565b5f5f6040838503121561047a576104796102ed565b5b5f61048785828601610314565b925050602083013567ffffffffffffffff8111156104a8576104a76102f1565b5b6104b485828601610437565b9150509250929050565b5f73ffffffffffffffffffffffffffffffffffffffff82169050919050565b5f6104e7826104be565b9050919050565b6104f7816104dd565b82525050565b5f6020820190506105105f8301846104ee565b92915050565b5f819050919050565b61052881610516565b82525050565b5f6020820190506105415f83018461051f565b92915050565b610550816104dd565b811461055a575f5ffd5b50565b5f8135905061056b81610547565b92915050565b61057a81610516565b8114610584575f5ffd5b50565b5f8135905061059581610571565b92915050565b5f5ffd5b5f5ffd5b5f5f83601f8401126105b8576105b7610328565b5b8235905067ffffffffffffffff8111156105d5576105d461059b565b5b6020830191508360018202830111156105f1576105f061059f565b5b9250929050565b5f5f5f5f606085870312156106105761060f6102ed565b5b5f61061d8782880161055d565b945050602061062e87828801610587565b935050604085013567ffffffffffffffff81111561064f5761064e6102f1565b5b61065b878288016105a3565b925092505092959194509250565b5f82825260208201905092915050565b7f496e76616c6964207369676e6174757265206c656e67746800000000000000005f82015250565b5f6106ad601883610669565b91506106b882610679565b602082019050919050565b5f6020820190508181035f8301526106da816106a1565b9050919050565b6106ea816102f5565b82525050565b5f60ff82169050919050565b610705816106f0565b82525050565b5f60808201905061071e5f8301876106e1565b61072b60208301866106fc565b61073860408301856106e1565b61074560608301846106e1565b95945050505050565b7f596f75277265206e6f7420746865206f776e6572206f6620746865206163636f5f8201527f756e740000000000000000000000000000000000000000000000000000000000602082015250565b5f6107a8602383610669565b91506107b38261074e565b604082019050919050565b5f6020820190508181035f8301526107d58161079c565b9050919050565b7f4e487b71000000000000000000000000000000000000000000000000000000005f52601160045260245ffd5b5f61081382610516565b91507fffffffffffffffffffffffffffffffffffffffffffffffffffffffffffffffff8203610845576108446107dc565b5b600182019050919050565b5f81905092915050565b5f6108658385610850565b93506108728385846103e8565b82840190509392505050565b5f61088a82848661085a565b91508190509392505050565b7f457865637574696f6e206661696c7300000000000000000000000000000000005f82015250565b5f6108ca600f83610669565b91506108d582610896565b602082019050919050565b5f6020820190508181035f8301526108f7816108be565b905091905056fea2646970667358221220816f046035d74806251fa912dce2ba2a0c97af643647e91e42870ed662785a8564736f6c634300081e0033",
					"opcodes": "PUSH1 0x80 PUSH1 0x40 MSTORE CALLVALUE DUP1 ISZERO PUSH2 0xF JUMPI PUSH0 PUSH0 REVERT JUMPDEST POP PUSH1 0x40 MLOAD PUSH2 0xA40 CODESIZE SUB DUP1 PUSH2 0xA40 DUP4 CODECOPY DUP2 DUP2 ADD PUSH1 0x40 MSTORE DUP2 ADD SWAP1 PUSH2 0x31 SWAP2 SWAP1 PUSH2 0xD4 JUMP JUMPDEST DUP1 PUSH0 PUSH0 PUSH2 0x100 EXP DUP2 SLOAD DUP2 PUSH20 0xFFFFFFFFFFFFFFFFFFFFFFFFFFFFFFFFFFFFFFFF MUL NOT AND SWAP1 DUP4 PUSH20 0xFFFFFFFFFFFFFFFFFFFFFFFFFFFFFFFFFFFFFFFF AND MUL OR SWAP1 SSTORE POP POP PUSH2 0xFF JUMP JUMPDEST PUSH0 PUSH0 REVERT JUMPDEST PUSH0 PUSH20 0xFFFFFFFFFFFFFFFFFFFFFFFFFFFFFFFFFFFFFFFF DUP3 AND SWAP1 POP SWAP2 SWAP1 POP JUMP JUMPDEST PUSH0 PUSH2 0xA3 DUP3 PUSH2 0x7A JUMP JUMPDEST SWAP1 POP SWAP2 SWAP1 POP JUMP JUMPDEST PUSH2 0xB3 DUP2 PUSH2 0x99 JUMP JUMPDEST DUP2 EQ PUSH2 0xBD JUMPI PUSH0 PUSH0 REVERT JUMPDEST POP JUMP JUMPDEST PUSH0 DUP2 MLOAD SWAP1 POP PUSH2 0xCE DUP2 PUSH2 0xAA JUMP JUMPDEST SWAP3 SWAP2 POP POP JUMP JUMPDEST PUSH0 PUSH1 0x20 DUP3 DUP5 SUB SLT ISZERO PUSH2 0xE9 JUMPI PUSH2 0xE8 PUSH2 0x76 JUMP JUMPDEST JUMPDEST PUSH0 PUSH2 0xF6 DUP5 DUP3 DUP6 ADD PUSH2 0xC0 JUMP JUMPDEST SWAP2 POP POP SWAP3 SWAP2 POP POP JUMP JUMPDEST PUSH2 0x934 DUP1 PUSH2 0x10C PUSH0 CODECOPY PUSH0 RETURN INVALID PUSH1 0x80 PUSH1 0x40 MSTORE PUSH1 0x4 CALLDATASIZE LT PUSH2 0x37 JUMPI PUSH0 CALLDATALOAD PUSH1 0xE0 SHR DUP1 PUSH4 0x97ABA7F9 EQ PUSH2 0x42 JUMPI DUP1 PUSH4 0xAFFED0E0 EQ PUSH2 0x7E JUMPI DUP1 PUSH4 0xB61D27F6 EQ PUSH2 0xA8 JUMPI PUSH2 0x3E JUMP JUMPDEST CALLDATASIZE PUSH2 0x3E JUMPI STOP JUMPDEST PUSH0 PUSH0 REVERT JUMPDEST CALLVALUE DUP1 ISZERO PUSH2 0x4D JUMPI PUSH0 PUSH0 REVERT JUMPDEST POP PUSH2 0x68 PUSH1 0x4 DUP1 CALLDATASIZE SUB DUP2 ADD SWAP1 PUSH2 0x63 SWAP2 SWAP1 PUSH2 0x464 JUMP JUMPDEST PUSH2 0xD0 JUMP JUMPDEST PUSH1 0x40 MLOAD PUSH2 0x75 SWAP2 SWAP1 PUSH2 0x4FD JUMP JUMPDEST PUSH1 0x40 MLOAD DUP1 SWAP2 SUB SWAP1 RETURN JUMPDEST CALLVALUE DUP1 ISZERO PUSH2 0x89 JUMPI PUSH0 PUSH0 REVERT JUMPDEST POP PUSH2 0x92 PUSH2 0x186 JUMP JUMPDEST PUSH1 0x40 MLOAD PUSH2 0x9F SWAP2 SWAP1 PUSH2 0x52E JUMP JUMPDEST PUSH1 0x40 MLOAD DUP1 SWAP2 SUB SWAP1 RETURN JUMPDEST CALLVALUE DUP1 ISZERO PUSH2 0xB3 JUMPI PUSH0 PUSH0 REVERT JUMPDEST POP PUSH2 0xCE PUSH1 0x4 DUP1 CALLDATASIZE SUB DUP2 ADD SWAP1 PUSH2 0xC9 SWAP2 SWAP1 PUSH2 0x5F8 JUMP JUMPDEST PUSH2 0x18C JUMP JUMPDEST STOP JUMPDEST PUSH0 PUSH1 0x41 DUP3 MLOAD EQ PUSH2 0x115 JUMPI PUSH1 0x40 MLOAD PUSH32 0x8C379A000000000000000000000000000000000000000000000000000000000 DUP2 MSTORE PUSH1 0x4 ADD PUSH2 0x10C SWAP1 PUSH2 0x6C3 JUMP JUMPDEST PUSH1 0x40 MLOAD DUP1 SWAP2 SUB SWAP1 REVERT JUMPDEST PUSH0 PUSH0 PUSH0 PUSH1 0x20 DUP6 ADD MLOAD SWAP3 POP PUSH1 0x40 DUP6 ADD MLOAD SWAP2 POP PUSH1 0x60 DUP6 ADD MLOAD PUSH0 BYTE SWAP1 POP PUSH1 0x1 DUP7 DUP3 DUP6 DUP6 PUSH1 0x40 MLOAD PUSH0 DUP2 MSTORE PUSH1 0x20 ADD PUSH1 0x40 MSTORE PUSH1 0x40 MLOAD PUSH2 0x151 SWAP5 SWAP4 SWAP3 SWAP2 SWAP1 PUSH2 0x70B JUMP JUMPDEST PUSH1 0x20 PUSH1 0x40 MLOAD PUSH1 0x20 DUP2 SUB SWAP1 DUP1 DUP5 SUB SWAP1 DUP6 GAS STATICCALL ISZERO DUP1 ISZERO PUSH2 0x171 JUMPI RETURNDATASIZE PUSH0 PUSH0 RETURNDATACOPY RETURNDATASIZE PUSH0 REVERT JUMPDEST POP POP POP PUSH1 0x20 PUSH1 0x40 MLOAD SUB MLOAD SWAP4 POP POP POP POP SWAP3 SWAP2 POP POP JUMP JUMPDEST PUSH1 0x1 SLOAD DUP2 JUMP JUMPDEST PUSH0 PUSH0 SWAP1 SLOAD SWAP1 PUSH2 0x100 EXP SWAP1 DIV PUSH20 0xFFFFFFFFFFFFFFFFFFFFFFFFFFFFFFFFFFFFFFFF AND PUSH20 0xFFFFFFFFFFFFFFFFFFFFFFFFFFFFFFFFFFFFFFFF AND CALLER PUSH20 0xFFFFFFFFFFFFFFFFFFFFFFFFFFFFFFFFFFFFFFFF AND EQ PUSH2 0x21A JUMPI PUSH1 0x40 MLOAD PUSH32 0x8C379A000000000000000000000000000000000000000000000000000000000 DUP2 MSTORE PUSH1 0x4 ADD PUSH2 0x211 SWAP1 PUSH2 0x7BE JUMP JUMPDEST PUSH1 0x40 MLOAD DUP1 SWAP2 SUB SWAP1 REVERT JUMPDEST PUSH1 0x1 PUSH0 DUP2 SLOAD DUP1 SWAP3 SWAP2 SWAP1 PUSH2 0x22C SWAP1 PUSH2 0x809 JUMP JUMPDEST SWAP2 SWAP1 POP SSTORE POP PUSH0 DUP5 PUSH20 0xFFFFFFFFFFFFFFFFFFFFFFFFFFFFFFFFFFFFFFFF AND DUP5 DUP5 DUP5 PUSH1 0x40 MLOAD PUSH2 0x25A SWAP3 SWAP2 SWAP1 PUSH2 0x87E JUMP JUMPDEST PUSH0 PUSH1 0x40 MLOAD DUP1 DUP4 SUB DUP2 DUP6 DUP8 GAS CALL SWAP3 POP POP POP RETURNDATASIZE DUP1 PUSH0 DUP2 EQ PUSH2 0x294 JUMPI PUSH1 0x40 MLOAD SWAP2 POP PUSH1 0x1F NOT PUSH1 0x3F RETURNDATASIZE ADD AND DUP3 ADD PUSH1 0x40 MSTORE RETURNDATASIZE DUP3 MSTORE RETURNDATASIZE PUSH0 PUSH1 0x20 DUP5 ADD RETURNDATACOPY PUSH2 0x299 JUMP JUMPDEST PUSH1 0x60 SWAP2 POP JUMPDEST POP POP SWAP1 POP DUP1 PUSH2 0x2DD JUMPI PUSH1 0x40 MLOAD PUSH32 0x8C379A000000000000000000000000000000000000000000000000000000000 DUP2 MSTORE PUSH1 0x4 ADD PUSH2 0x2D4 SWAP1 PUSH2 0x8E0 JUMP JUMPDEST PUSH1 0x40 MLOAD DUP1 SWAP2 SUB SWAP1 REVERT JUMPDEST POP POP POP POP POP JUMP JUMPDEST PUSH0 PUSH1 0x40 MLOAD SWAP1 POP SWAP1 JUMP JUMPDEST PUSH0 PUSH0 REVERT JUMPDEST PUSH0 PUSH0 REVERT JUMPDEST PUSH0 DUP2 SWAP1 POP SWAP2 SWAP1 POP JUMP JUMPDEST PUSH2 0x307 DUP2 PUSH2 0x2F5 JUMP JUMPDEST DUP2 EQ PUSH2 0x311 JUMPI PUSH0 PUSH0 REVERT JUMPDEST POP JUMP JUMPDEST PUSH0 DUP2 CALLDATALOAD SWAP1 POP PUSH2 0x322 DUP2 PUSH2 0x2FE JUMP JUMPDEST SWAP3 SWAP2 POP POP JUMP JUMPDEST PUSH0 PUSH0 REVERT JUMPDEST PUSH0 PUSH0 REVERT JUMPDEST PUSH0 PUSH1 0x1F NOT PUSH1 0x1F DUP4 ADD AND SWAP1 POP SWAP2 SWAP1 POP JUMP JUMPDEST PUSH32 0x4E487B7100000000000000000000000000000000000000000000000000000000 PUSH0 MSTORE PUSH1 0x41 PUSH1 0x4 MSTORE PUSH1 0x24 PUSH0 REVERT JUMPDEST PUSH2 0x376 DUP3 PUSH2 0x330 JUMP JUMPDEST DUP2 ADD DUP2 DUP2 LT PUSH8 0xFFFFFFFFFFFFFFFF DUP3 GT OR ISZERO PUSH2 0x395 JUMPI PUSH2 0x394 PUSH2 0x340 JUMP JUMPDEST JUMPDEST DUP1 PUSH1 0x40 MSTORE POP POP POP JUMP JUMPDEST PUSH0 PUSH2 0x3A7 PUSH2 0x2E4 JUMP JUMPDEST SWAP1 POP PUSH2 0x3B3 DUP3 DUP3 PUSH2 0x36D JUMP JUMPDEST SWAP2 SWAP1 POP JUMP JUMPDEST PUSH0 PUSH8 0xFFFFFFFFFFFFFFFF DUP3 GT ISZERO PUSH2 0x3D2 JUMPI PUSH2 0x3D1 PUSH2 0x340 JUMP JUMPDEST JUMPDEST PUSH2 0x3DB DUP3 PUSH2 0x330 JUMP JUMPDEST SWAP1 POP PUSH1 0x20 DUP2 ADD SWAP1 POP SWAP2 SWAP1 POP JUMP JUMPDEST DUP3 DUP2 DUP4 CALLDATACOPY PUSH0 DUP4 DUP4 ADD MSTORE POP POP POP JUMP JUMPDEST PUSH0 PUSH2 0x408 PUSH2 0x403 DUP5 PUSH2 0x3B8 JUMP JUMPDEST PUSH2 0x39E JUMP JUMPDEST SWAP1 POP DUP3 DUP2 MSTORE PUSH1 0x20 DUP2 ADD DUP5 DUP5 DUP5 ADD GT ISZERO PUSH2 0x424 JUMPI PUSH2 0x423 PUSH2 0x32C JUMP JUMPDEST JUMPDEST PUSH2 0x42F DUP5 DUP3 DUP6 PUSH2 0x3E8 JUMP JUMPDEST POP SWAP4 SWAP3 POP POP POP JUMP JUMPDEST PUSH0 DUP3 PUSH1 0x1F DUP4 ADD SLT PUSH2 0x44B JUMPI PUSH2 0x44A PUSH2 0x328 JUMP JUMPDEST JUMPDEST DUP2 CALLDATALOAD PUSH2 0x45B DUP5 DUP3 PUSH1 0x20 DUP7 ADD PUSH2 0x3F6 JUMP JUMPDEST SWAP2 POP POP SWAP3 SWAP2 POP POP JUMP JUMPDEST PUSH0 PUSH0 PUSH1 0x40 DUP4 DUP6 SUB SLT ISZERO PUSH2 0x47A JUMPI PUSH2 0x479 PUSH2 0x2ED JUMP JUMPDEST JUMPDEST PUSH0 PUSH2 0x487 DUP6 DUP3 DUP7 ADD PUSH2 0x314 JUMP JUMPDEST SWAP3 POP POP PUSH1 0x20 DUP4 ADD CALLDATALOAD PUSH8 0xFFFFFFFFFFFFFFFF DUP2 GT ISZERO PUSH2 0x4A8 JUMPI PUSH2 0x4A7 PUSH2 0x2F1 JUMP JUMPDEST JUMPDEST PUSH2 0x4B4 DUP6 DUP3 DUP7 ADD PUSH2 0x437 JUMP JUMPDEST SWAP2 POP POP SWAP3 POP SWAP3 SWAP1 POP JUMP JUMPDEST PUSH0 PUSH20 0xFFFFFFFFFFFFFFFFFFFFFFFFFFFFFFFFFFFFFFFF DUP3 AND SWAP1 POP SWAP2 SWAP1 POP JUMP JUMPDEST PUSH0 PUSH2 0x4E7 DUP3 PUSH2 0x4BE JUMP JUMPDEST SWAP1 POP SWAP2 SWAP1 POP JUMP JUMPDEST PUSH2 0x4F7 DUP2 PUSH2 0x4DD JUMP JUMPDEST DUP3 MSTORE POP POP JUMP JUMPDEST PUSH0 PUSH1 0x20 DUP3 ADD SWAP1 POP PUSH2 0x510 PUSH0 DUP4 ADD DUP5 PUSH2 0x4EE JUMP JUMPDEST SWAP3 SWAP2 POP POP JUMP JUMPDEST PUSH0 DUP2 SWAP1 POP SWAP2 SWAP1 POP JUMP JUMPDEST PUSH2 0x528 DUP2 PUSH2 0x516 JUMP JUMPDEST DUP3 MSTORE POP POP JUMP JUMPDEST PUSH0 PUSH1 0x20 DUP3 ADD SWAP1 POP PUSH2 0x541 PUSH0 DUP4 ADD DUP5 PUSH2 0x51F JUMP JUMPDEST SWAP3 SWAP2 POP POP JUMP JUMPDEST PUSH2 0x550 DUP2 PUSH2 0x4DD JUMP JUMPDEST DUP2 EQ PUSH2 0x55A JUMPI PUSH0 PUSH0 REVERT JUMPDEST POP JUMP JUMPDEST PUSH0 DUP2 CALLDATALOAD SWAP1 POP PUSH2 0x56B DUP2 PUSH2 0x547 JUMP JUMPDEST SWAP3 SWAP2 POP POP JUMP JUMPDEST PUSH2 0x57A DUP2 PUSH2 0x516 JUMP JUMPDEST DUP2 EQ PUSH2 0x584 JUMPI PUSH0 PUSH0 REVERT JUMPDEST POP JUMP JUMPDEST PUSH0 DUP2 CALLDATALOAD SWAP1 POP PUSH2 0x595 DUP2 PUSH2 0x571 JUMP JUMPDEST SWAP3 SWAP2 POP POP JUMP JUMPDEST PUSH0 PUSH0 REVERT JUMPDEST PUSH0 PUSH0 REVERT JUMPDEST PUSH0 PUSH0 DUP4 PUSH1 0x1F DUP5 ADD SLT PUSH2 0x5B8 JUMPI PUSH2 0x5B7 PUSH2 0x328 JUMP JUMPDEST JUMPDEST DUP3 CALLDATALOAD SWAP1 POP PUSH8 0xFFFFFFFFFFFFFFFF DUP2 GT ISZERO PUSH2 0x5D5 JUMPI PUSH2 0x5D4 PUSH2 0x59B JUMP JUMPDEST JUMPDEST PUSH1 0x20 DUP4 ADD SWAP2 POP DUP4 PUSH1 0x1 DUP3 MUL DUP4 ADD GT ISZERO PUSH2 0x5F1 JUMPI PUSH2 0x5F0 PUSH2 0x59F JUMP JUMPDEST JUMPDEST SWAP3 POP SWAP3 SWAP1 POP JUMP JUMPDEST PUSH0 PUSH0 PUSH0 PUSH0 PUSH1 0x60 DUP6 DUP8 SUB SLT ISZERO PUSH2 0x610 JUMPI PUSH2 0x60F PUSH2 0x2ED JUMP JUMPDEST JUMPDEST PUSH0 PUSH2 0x61D DUP8 DUP3 DUP9 ADD PUSH2 0x55D JUMP JUMPDEST SWAP5 POP POP PUSH1 0x20 PUSH2 0x62E DUP8 DUP3 DUP9 ADD PUSH2 0x587 JUMP JUMPDEST SWAP4 POP POP PUSH1 0x40 DUP6 ADD CALLDATALOAD PUSH8 0xFFFFFFFFFFFFFFFF DUP2 GT ISZERO PUSH2 0x64F JUMPI PUSH2 0x64E PUSH2 0x2F1 JUMP JUMPDEST JUMPDEST PUSH2 0x65B DUP8 DUP3 DUP9 ADD PUSH2 0x5A3 JUMP JUMPDEST SWAP3 POP SWAP3 POP POP SWAP3 SWAP6 SWAP2 SWAP5 POP SWAP3 POP JUMP JUMPDEST PUSH0 DUP3 DUP3 MSTORE PUSH1 0x20 DUP3 ADD SWAP1 POP SWAP3 SWAP2 POP POP JUMP JUMPDEST PUSH32 0x496E76616C6964207369676E6174757265206C656E6774680000000000000000 PUSH0 DUP3 ADD MSTORE POP JUMP JUMPDEST PUSH0 PUSH2 0x6AD PUSH1 0x18 DUP4 PUSH2 0x669 JUMP JUMPDEST SWAP2 POP PUSH2 0x6B8 DUP3 PUSH2 0x679 JUMP JUMPDEST PUSH1 0x20 DUP3 ADD SWAP1 POP SWAP2 SWAP1 POP JUMP JUMPDEST PUSH0 PUSH1 0x20 DUP3 ADD SWAP1 POP DUP2 DUP2 SUB PUSH0 DUP4 ADD MSTORE PUSH2 0x6DA DUP2 PUSH2 0x6A1 JUMP JUMPDEST SWAP1 POP SWAP2 SWAP1 POP JUMP JUMPDEST PUSH2 0x6EA DUP2 PUSH2 0x2F5 JUMP JUMPDEST DUP3 MSTORE POP POP JUMP JUMPDEST PUSH0 PUSH1 0xFF DUP3 AND SWAP1 POP SWAP2 SWAP1 POP JUMP JUMPDEST PUSH2 0x705 DUP2 PUSH2 0x6F0 JUMP JUMPDEST DUP3 MSTORE POP POP JUMP JUMPDEST PUSH0 PUSH1 0x80 DUP3 ADD SWAP1 POP PUSH2 0x71E PUSH0 DUP4 ADD DUP8 PUSH2 0x6E1 JUMP JUMPDEST PUSH2 0x72B PUSH1 0x20 DUP4 ADD DUP7 PUSH2 0x6FC JUMP JUMPDEST PUSH2 0x738 PUSH1 0x40 DUP4 ADD DUP6 PUSH2 0x6E1 JUMP JUMPDEST PUSH2 0x745 PUSH1 0x60 DUP4 ADD DUP5 PUSH2 0x6E1 JUMP JUMPDEST SWAP6 SWAP5 POP POP POP POP POP JUMP JUMPDEST PUSH32 0x596F75277265206E6F7420746865206F776E6572206F6620746865206163636F PUSH0 DUP3 ADD MSTORE PUSH32 0x756E740000000000000000000000000000000000000000000000000000000000 PUSH1 0x20 DUP3 ADD MSTORE POP JUMP JUMPDEST PUSH0 PUSH2 0x7A8 PUSH1 0x23 DUP4 PUSH2 0x669 JUMP JUMPDEST SWAP2 POP PUSH2 0x7B3 DUP3 PUSH2 0x74E JUMP JUMPDEST PUSH1 0x40 DUP3 ADD SWAP1 POP SWAP2 SWAP1 POP JUMP JUMPDEST PUSH0 PUSH1 0x20 DUP3 ADD SWAP1 POP DUP2 DUP2 SUB PUSH0 DUP4 ADD MSTORE PUSH2 0x7D5 DUP2 PUSH2 0x79C JUMP JUMPDEST SWAP1 POP SWAP2 SWAP1 POP JUMP JUMPDEST PUSH32 0x4E487B7100000000000000000000000000000000000000000000000000000000 PUSH0 MSTORE PUSH1 0x11 PUSH1 0x4 MSTORE PUSH1 0x24 PUSH0 REVERT JUMPDEST PUSH0 PUSH2 0x813 DUP3 PUSH2 0x516 JUMP JUMPDEST SWAP2 POP PUSH32 0xFFFFFFFFFFFFFFFFFFFFFFFFFFFFFFFFFFFFFFFFFFFFFFFFFFFFFFFFFFFFFFFF DUP3 SUB PUSH2 0x845 JUMPI PUSH2 0x844 PUSH2 0x7DC JUMP JUMPDEST JUMPDEST PUSH1 0x1 DUP3 ADD SWAP1 POP SWAP2 SWAP1 POP JUMP JUMPDEST PUSH0 DUP2 SWAP1 POP SWAP3 SWAP2 POP POP JUMP JUMPDEST PUSH0 PUSH2 0x865 DUP4 DUP6 PUSH2 0x850 JUMP JUMPDEST SWAP4 POP PUSH2 0x872 DUP4 DUP6 DUP5 PUSH2 0x3E8 JUMP JUMPDEST DUP3 DUP5 ADD SWAP1 POP SWAP4 SWAP3 POP POP POP JUMP JUMPDEST PUSH0 PUSH2 0x88A DUP3 DUP5 DUP7 PUSH2 0x85A JUMP JUMPDEST SWAP2 POP DUP2 SWAP1 POP SWAP4 SWAP3 POP POP POP JUMP JUMPDEST PUSH32 0x457865637574696F6E206661696C730000000000000000000000000000000000 PUSH0 DUP3 ADD MSTORE POP JUMP JUMPDEST PUSH0 PUSH2 0x8CA PUSH1 0xF DUP4 PUSH2 0x669 JUMP JUMPDEST SWAP2 POP PUSH2 0x8D5 DUP3 PUSH2 0x896 JUMP JUMPDEST PUSH1 0x20 DUP3 ADD SWAP1 POP SWAP2 SWAP1 POP JUMP JUMPDEST PUSH0 PUSH1 0x20 DUP3 ADD SWAP1 POP DUP2 DUP2 SUB PUSH0 DUP4 ADD MSTORE PUSH2 0x8F7 DUP2 PUSH2 0x8BE JUMP JUMPDEST SWAP1 POP SWAP2 SWAP1 POP JUMP INVALID LOG2 PUSH5 0x6970667358 0x22 SLT KECCAK256 DUP2 PUSH16 0x46035D74806251FA912DCE2BA2A0C97 0xAF PUSH5 0x3647E91E42 DUP8 0xE 0xD6 PUSH3 0x785A85 PUSH5 0x736F6C6343 STOP ADDMOD 0x1E STOP CALLER "
				},
				"gasEstimates": {
					"creation": {
						"codeDepositCost": "471200",
						"executionCost": "infinite",
						"totalCost": "infinite"
					},
					"external": {
						"execute(address,uint256,bytes)": "infinite",
						"nonce()": "2425",
						"recoverSigner(bytes32,bytes)": "infinite"
					}
				},
				"methodIdentifiers": {
					"execute(address,uint256,bytes)": "b61d27f6",
					"nonce()": "affed0e0",
					"recoverSigner(bytes32,bytes)": "97aba7f9"
				}
			},
			"storageLayout": {
				"storage": [
					{
						"astId": 3,
						"contract": "smartWallet.sol:smartWallet",
						"label": "user",
						"offset": 0,
						"slot": "0",
						"type": "t_address"
					},
					{
						"astId": 5,
						"contract": "smartWallet.sol:smartWallet",
						"label": "nonce",
						"offset": 0,
						"slot": "1",
						"type": "t_uint256"
					}
				],
				"types": {
					"t_address": {
						"encoding": "inplace",
						"label": "address",
						"numberOfBytes": "20"
					},
					"t_uint256": {
						"encoding": "inplace",
						"label": "uint256",
						"numberOfBytes": "32"
					}
				}
			},
			"userdoc": {
				"kind": "user",
				"methods": {},
				"version": 1
			}
		}
	}
}